{
  "_format": "hh-sol-artifact-1",
  "contractName": "EmailDataWalletOS_Secure",
  "sourceName": "contracts/active/EmailDataWalletOS_Secure.sol",
  "abi": [
    {
      "inputs": [
        {
          "internalType": "address",
          "name": "initialOwner",
          "type": "address"
        }
      ],
      "stateMutability": "nonpayable",
      "type": "constructor"
    },
    {
      "inputs": [
        {
          "internalType": "string",
          "name": "emailHash",
          "type": "string"
        }
      ],
      "name": "EmailHashAlreadyExists",
      "type": "error"
    },
    {
      "inputs": [
        {
          "internalType": "uint32",
          "name": "count",
          "type": "uint32"
        }
      ],
      "name": "InvalidAttachmentCount",
      "type": "error"
    },
    {
      "inputs": [
        {
          "internalType": "string",
          "name": "paramName",
          "type": "string"
        }
      ],
      "name": "InvalidHashValue",
      "type": "error"
    },
    {
      "inputs": [
        {
          "internalType": "string",
          "name": "paramName",
          "type": "string"
        },
        {
          "internalType": "uint256",
          "name": "length",
          "type": "uint256"
        }
      ],
      "name": "InvalidStringLength",
      "type": "error"
    },
    {
      "inputs": [],
      "name": "InvalidUserAddress",
      "type": "error"
    },
    {
      "inputs": [
        {
          "internalType": "address",
          "name": "user",
          "type": "address"
        },
        {
          "internalType": "uint256",
          "name": "currentCount",
          "type": "uint256"
        }
      ],
      "name": "MaxWalletsExceeded",
      "type": "error"
    },
    {
      "inputs": [
        {
          "internalType": "address",
          "name": "user",
          "type": "address"
        },
        {
          "internalType": "uint256",
          "name": "walletId",
          "type": "uint256"
        }
      ],
      "name": "UnauthorizedAccess",
      "type": "error"
    },
    {
      "inputs": [
        {
          "internalType": "uint256",
          "name": "walletId",
          "type": "uint256"
        }
      ],
      "name": "WalletNotActive",
      "type": "error"
    },
    {
      "inputs": [
        {
          "internalType": "uint256",
          "name": "walletId",
          "type": "uint256"
        }
      ],
      "name": "WalletNotFound",
      "type": "error"
    },
    {
      "anonymous": false,
      "inputs": [
        {
          "indexed": true,
          "internalType": "uint256",
          "name": "walletId",
          "type": "uint256"
        },
        {
          "indexed": true,
          "internalType": "address",
          "name": "userAddress",
          "type": "address"
        },
        {
          "indexed": false,
          "internalType": "string",
          "name": "emailHash",
          "type": "string"
        },
        {
          "indexed": false,
          "internalType": "string",
          "name": "subjectHash",
          "type": "string"
        },
        {
          "indexed": false,
          "internalType": "uint32",
          "name": "attachmentCount",
          "type": "uint32"
        },
        {
          "indexed": false,
          "internalType": "uint256",
          "name": "timestamp",
          "type": "uint256"
        }
      ],
      "name": "EmailDataWalletCreated",
      "type": "event"
    },
    {
      "anonymous": false,
      "inputs": [
        {
          "indexed": true,
          "internalType": "uint256",
          "name": "walletId",
          "type": "uint256"
        },
        {
          "indexed": true,
          "internalType": "address",
          "name": "userAddress",
          "type": "address"
        },
        {
          "indexed": false,
          "internalType": "uint256",
          "name": "timestamp",
          "type": "uint256"
        }
      ],
      "name": "EmailDataWalletDeactivated",
      "type": "event"
    },
    {
      "anonymous": false,
      "inputs": [
        {
          "indexed": true,
          "internalType": "uint256",
          "name": "walletId",
          "type": "uint256"
        },
        {
          "indexed": true,
          "internalType": "address",
          "name": "userAddress",
          "type": "address"
        },
        {
          "indexed": false,
          "internalType": "string",
          "name": "newMetadata",
          "type": "string"
        },
        {
          "indexed": false,
          "internalType": "uint256",
          "name": "timestamp",
          "type": "uint256"
        }
      ],
      "name": "EmailDataWalletUpdated",
      "type": "event"
    },
    {
      "anonymous": false,
      "inputs": [
        {
          "indexed": true,
          "internalType": "address",
          "name": "previousOwner",
          "type": "address"
        },
        {
          "indexed": true,
          "internalType": "address",
          "name": "newOwner",
          "type": "address"
        }
      ],
      "name": "OwnershipTransferred",
      "type": "event"
    },
    {
      "anonymous": false,
      "inputs": [
        {
          "indexed": false,
          "internalType": "address",
          "name": "account",
          "type": "address"
        }
      ],
      "name": "Paused",
      "type": "event"
    },
    {
      "anonymous": false,
      "inputs": [
        {
          "indexed": false,
          "internalType": "address",
          "name": "account",
          "type": "address"
        }
      ],
      "name": "Unpaused",
      "type": "event"
    },
    {
      "inputs": [],
      "name": "MAX_ATTACHMENT_COUNT",
      "outputs": [
        {
          "internalType": "uint256",
          "name": "",
          "type": "uint256"
        }
      ],
      "stateMutability": "view",
      "type": "function"
    },
    {
      "inputs": [],
      "name": "MAX_STRING_LENGTH",
      "outputs": [
        {
          "internalType": "uint256",
          "name": "",
          "type": "uint256"
        }
      ],
      "stateMutability": "view",
      "type": "function"
    },
    {
      "inputs": [],
      "name": "MAX_WALLETS_PER_USER",
      "outputs": [
        {
          "internalType": "uint256",
          "name": "",
          "type": "uint256"
        }
      ],
      "stateMutability": "view",
      "type": "function"
    },
    {
      "inputs": [
        {
          "internalType": "address",
          "name": "userAddress",
          "type": "address"
        },
        {
          "internalType": "string",
          "name": "emailHash",
          "type": "string"
        },
        {
          "internalType": "string",
          "name": "subjectHash",
          "type": "string"
        },
        {
          "internalType": "string",
          "name": "contentHash",
          "type": "string"
        },
        {
          "internalType": "string",
          "name": "senderHash",
          "type": "string"
        },
        {
          "internalType": "string[]",
          "name": "attachmentHashes",
          "type": "string[]"
        },
        {
          "internalType": "string",
          "name": "metadata",
          "type": "string"
        }
      ],
      "name": "createEmailDataWallet",
      "outputs": [
        {
          "internalType": "uint256",
          "name": "",
          "type": "uint256"
        }
      ],
      "stateMutability": "nonpayable",
      "type": "function"
    },
    {
      "inputs": [
        {
          "internalType": "uint256",
          "name": "walletId",
          "type": "uint256"
        }
      ],
      "name": "deactivateWallet",
      "outputs": [],
      "stateMutability": "nonpayable",
      "type": "function"
    },
    {
      "inputs": [
        {
          "internalType": "uint256",
          "name": "",
          "type": "uint256"
        }
      ],
      "name": "emailDataWallets",
      "outputs": [
        {
          "internalType": "uint256",
          "name": "walletId",
          "type": "uint256"
        },
        {
          "internalType": "address",
          "name": "userAddress",
          "type": "address"
        },
        {
          "internalType": "string",
          "name": "emailHash",
          "type": "string"
        },
        {
          "internalType": "string",
          "name": "subjectHash",
          "type": "string"
        },
        {
          "internalType": "string",
          "name": "contentHash",
          "type": "string"
        },
        {
          "internalType": "string",
          "name": "senderHash",
          "type": "string"
        },
        {
          "internalType": "uint32",
          "name": "attachmentCount",
          "type": "uint32"
        },
        {
          "internalType": "uint256",
          "name": "timestamp",
          "type": "uint256"
        },
        {
          "internalType": "bool",
          "name": "isActive",
          "type": "bool"
        },
        {
          "internalType": "string",
          "name": "metadata",
          "type": "string"
        }
      ],
      "stateMutability": "view",
      "type": "function"
    },
    {
      "inputs": [
        {
          "internalType": "string",
          "name": "",
          "type": "string"
        }
      ],
      "name": "emailHashExists",
      "outputs": [
        {
          "internalType": "bool",
          "name": "",
          "type": "bool"
        }
      ],
      "stateMutability": "view",
      "type": "function"
    },
    {
      "inputs": [
        {
          "internalType": "string",
          "name": "",
          "type": "string"
        }
      ],
      "name": "emailHashToWalletId",
      "outputs": [
        {
          "internalType": "uint256",
          "name": "",
          "type": "uint256"
        }
      ],
      "stateMutability": "view",
      "type": "function"
    },
    {
      "inputs": [
        {
          "internalType": "address",
          "name": "userAddress",
          "type": "address"
        }
      ],
      "name": "getActiveWalletCount",
      "outputs": [
        {
          "internalType": "uint256",
          "name": "count",
          "type": "uint256"
        }
      ],
      "stateMutability": "view",
      "type": "function"
    },
    {
      "inputs": [
        {
          "internalType": "address",
          "name": "userAddress",
          "type": "address"
        }
      ],
      "name": "getAllUserWallets",
      "outputs": [
        {
          "internalType": "uint256[]",
          "name": "",
          "type": "uint256[]"
        }
      ],
      "stateMutability": "view",
      "type": "function"
    },
    {
      "inputs": [
        {
          "internalType": "uint256",
          "name": "walletId",
          "type": "uint256"
        }
      ],
      "name": "getEmailDataWallet",
      "outputs": [
        {
          "components": [
            {
              "internalType": "uint256",
              "name": "walletId",
              "type": "uint256"
            },
            {
              "internalType": "address",
              "name": "userAddress",
              "type": "address"
            },
            {
              "internalType": "string",
              "name": "emailHash",
              "type": "string"
            },
            {
              "internalType": "string",
              "name": "subjectHash",
              "type": "string"
            },
            {
              "internalType": "string",
              "name": "contentHash",
              "type": "string"
            },
            {
              "internalType": "string",
              "name": "senderHash",
              "type": "string"
            },
            {
              "internalType": "string[]",
              "name": "attachmentHashes",
              "type": "string[]"
            },
            {
              "internalType": "uint32",
              "name": "attachmentCount",
              "type": "uint32"
            },
            {
              "internalType": "uint256",
              "name": "timestamp",
              "type": "uint256"
            },
            {
              "internalType": "bool",
              "name": "isActive",
              "type": "bool"
            },
            {
              "internalType": "string",
              "name": "metadata",
              "type": "string"
            }
          ],
          "internalType": "struct EmailDataWalletOS_Secure.EmailDataWallet",
          "name": "",
          "type": "tuple"
        }
      ],
      "stateMutability": "view",
      "type": "function"
    },
    {
      "inputs": [],
      "name": "getTotalWalletCount",
      "outputs": [
        {
          "internalType": "uint256",
          "name": "",
          "type": "uint256"
        }
      ],
      "stateMutability": "view",
      "type": "function"
    },
    {
      "inputs": [
        {
          "internalType": "string",
          "name": "emailHash",
          "type": "string"
        }
      ],
      "name": "getWalletIdByEmailHash",
      "outputs": [
        {
          "internalType": "uint256",
          "name": "",
          "type": "uint256"
        }
      ],
      "stateMutability": "view",
      "type": "function"
    },
    {
      "inputs": [],
      "name": "owner",
      "outputs": [
        {
          "internalType": "address",
          "name": "",
          "type": "address"
        }
      ],
      "stateMutability": "view",
      "type": "function"
    },
    {
      "inputs": [],
      "name": "pause",
      "outputs": [],
      "stateMutability": "nonpayable",
      "type": "function"
    },
    {
      "inputs": [],
      "name": "paused",
      "outputs": [
        {
          "internalType": "bool",
          "name": "",
          "type": "bool"
        }
      ],
      "stateMutability": "view",
      "type": "function"
    },
    {
      "inputs": [],
      "name": "renounceOwnership",
      "outputs": [],
      "stateMutability": "nonpayable",
      "type": "function"
    },
    {
      "inputs": [
        {
          "internalType": "address",
          "name": "newOwner",
          "type": "address"
        }
      ],
      "name": "transferOwnership",
      "outputs": [],
      "stateMutability": "nonpayable",
      "type": "function"
    },
    {
      "inputs": [],
      "name": "unpause",
      "outputs": [],
      "stateMutability": "nonpayable",
      "type": "function"
    },
    {
      "inputs": [
        {
          "internalType": "uint256",
          "name": "walletId",
          "type": "uint256"
        },
        {
          "internalType": "string",
          "name": "newMetadata",
          "type": "string"
        }
      ],
      "name": "updateEmailDataWallet",
      "outputs": [],
      "stateMutability": "nonpayable",
      "type": "function"
    },
    {
      "inputs": [
        {
          "internalType": "address",
          "name": "",
          "type": "address"
        },
        {
          "internalType": "uint256",
          "name": "",
          "type": "uint256"
        }
      ],
      "name": "userWallets",
      "outputs": [
        {
          "internalType": "uint256",
          "name": "",
          "type": "uint256"
        }
      ],
      "stateMutability": "view",
      "type": "function"
    },
    {
      "inputs": [
        {
          "internalType": "uint256",
          "name": "walletId",
          "type": "uint256"
        }
      ],
      "name": "walletExists",
      "outputs": [
        {
          "internalType": "bool",
          "name": "",
          "type": "bool"
        }
      ],
      "stateMutability": "view",
      "type": "function"
    }
  ],
  "bytecode": "0x60806040523480156200001157600080fd5b506040516200211e3803806200211e8339810160408190526200003491620000af565b6200003f336200005f565b600180556002805460ff1916905562000058816200005f565b50620000e1565b600080546001600160a01b038381166001600160a01b0319831681178455604051919092169283917f8be0079c531659141344cd1fd0a4f28419497f9722a3daafe3b4186f6b6457e09190a35050565b600060208284031215620000c257600080fd5b81516001600160a01b0381168114620000da57600080fd5b9392505050565b61202d80620000f16000396000f3fe608060405234801561001057600080fd5b50600436106101425760003560e01c80638456cb59116100b8578063c39974601161007c578063c399746014610293578063c7d495e9146102c1578063e2d92a10146102c9578063f2fde38b146102dc578063f9366d9e146102ef578063fe46ec141461030257600080fd5b80638456cb59146102425780638b2eac141461024a5780638da5cb5b1461025d578063a21fd1ca14610278578063bc7a6dd31461028057600080fd5b806356ae5b7b1161010a57806356ae5b7b146101be5780635721a2fd146101c75780635c975abb146101e7578063634d97bf146101fe578063715018a614610227578063820268031461022f57600080fd5b80630155e0981461014757806334ccc5ea1461016d578063353e5911146101765780633f4ba83a146101a15780634a0c2173146101ab575b600080fd5b61015a6101553660046117ef565b610322565b6040519081526020015b60405180910390f35b61015a6101f481565b61015a6101843660046118d0565b805160208183018101805160078252928201919093012091525481565b6101a9610353565b005b6101a96101b936600461190d565b610365565b61015a6103e881565b6101da6101d5366004611926565b610408565b6040516101649190611948565b60025460ff165b6040519015158152602001610164565b61021161020c36600461190d565b610474565b6040516101649a999897969594939291906119dc565b6101a9610783565b6101a961023d366004611a84565b610795565b6101a96108e7565b61015a610258366004611b6a565b6108f7565b6000546040516001600160a01b039091168152602001610164565b61015a610e03565b6101ee61028e36600461190d565b610e13565b6101ee6102a13660046118d0565b805160208183018101805160068252928201919093012091525460ff1681565b61015a606481565b61015a6102d73660046118d0565b610e24565b6101a96102ea366004611926565b610e8f565b61015a6102fd366004611926565b610f08565b61031561031036600461190d565b610fdb565b6040516101649190611cc6565b6005602052816000526040600020818154811061033e57600080fd5b90600052602060002001600091509150505481565b61035b611494565b6103636114ee565b565b61036d611494565b610375611540565b61037e81611586565b6103a3576040516344dcb68560e11b8152600481018290526024015b60405180910390fd5b60008181526004602090815260409182902060098101805460ff191690556001810154925142815290926001600160a01b03169184917f41dd4ed1a5287df998ac81411c6809a297928a4a3c0a17b0407eb6a1a0fc0075910160405180910390a35050565b6001600160a01b03811660009081526005602090815260409182902080548351818402810184019094528084526060939283018282801561046857602002820191906000526020600020905b815481526020019060010190808311610454575b50505050509050919050565b60046020526000908152604090208054600182015460028301805492936001600160a01b03909216926104a690611de1565b80601f01602080910402602001604051908101604052809291908181526020018280546104d290611de1565b801561051f5780601f106104f45761010080835404028352916020019161051f565b820191906000526020600020905b81548152906001019060200180831161050257829003601f168201915b50505050509080600301805461053490611de1565b80601f016020809104026020016040519081016040528092919081815260200182805461056090611de1565b80156105ad5780601f10610582576101008083540402835291602001916105ad565b820191906000526020600020905b81548152906001019060200180831161059057829003601f168201915b5050505050908060040180546105c290611de1565b80601f01602080910402602001604051908101604052809291908181526020018280546105ee90611de1565b801561063b5780601f106106105761010080835404028352916020019161063b565b820191906000526020600020905b81548152906001019060200180831161061e57829003601f168201915b50505050509080600501805461065090611de1565b80601f016020809104026020016040519081016040528092919081815260200182805461067c90611de1565b80156106c95780601f1061069e576101008083540402835291602001916106c9565b820191906000526020600020905b8154815290600101906020018083116106ac57829003601f168201915b505050600784015460088501546009860154600a87018054969763ffffffff9094169692955060ff90911693509061070090611de1565b80601f016020809104026020016040519081016040528092919081815260200182805461072c90611de1565b80156107795780601f1061074e57610100808354040283529160200191610779565b820191906000526020600020905b81548152906001019060200180831161075c57829003601f168201915b505050505090508a565b61078b611494565b610363600061159b565b61079d611540565b6107a56115eb565b6107ae82611586565b6107ce576040516344dcb68560e11b81526004810183905260240161039a565b6000828152600460205260409020600981015460ff166108045760405163f6dabb9360e01b81526004810184905260240161039a565b6000546001600160a01b0316331480159061082c575060018101546001600160a01b03163314155b15610853576040516343b1949160e01b81523360048201526024810184905260440161039a565b61087d604051806040016040528060088152602001676d6574616461746160c01b81525083611644565b600a810161088b8382611e6a565b5060018101546040516001600160a01b039091169084907fd03f84305b747a4aaa97bc239860e631216d485f2d26f5a322820b032fb2c25c906108d19086904290611f2a565b60405180910390a3506108e360018055565b5050565b6108ef611494565b61036361166c565b6000610901611494565b610909611540565b6109116115eb565b6001600160a01b03881661093857604051630702b3d960e41b815260040160405180910390fd5b610963604051806040016040528060098152602001680cadac2d2d890c2e6d60bb1b81525088611644565b6109906040518060400160405280600b81526020016a0e6eac4d4cac6e890c2e6d60ab1b81525087611644565b6109bd6040518060400160405280600b81526020016a0c6dedce8cadce890c2e6d60ab1b81525086611644565b6109e96040518060400160405280600a8152602001690e6cadcc8cae490c2e6d60b31b81525085611644565b610a13604051806040016040528060088152602001676d6574616461746160c01b81525083611644565b610a3e604051806040016040528060098152602001680cadac2d2d890c2e6d60bb1b815250886116a9565b610a6b6040518060400160405280600b81526020016a0e6eac4d4cac6e890c2e6d60ab1b815250876116a9565b610a986040518060400160405280600b81526020016a0c6dedce8cadce890c2e6d60ab1b815250866116a9565b610ac46040518060400160405280600a8152602001690e6cadcc8cae490c2e6d60b31b815250856116a9565b606483511115610af25782516040516301c9948f60e61b815263ffffffff909116600482015260240161039a565b60005b8351811015610ba257610b476040518060400160405280600e81526020016d0c2e8e8c2c6d0dacadce890c2e6d60931b815250858381518110610b3a57610b3a611f4c565b6020026020010151611644565b610b906040518060400160405280600e81526020016d0c2e8e8c2c6d0dacadce890c2e6d60931b815250858381518110610b8357610b83611f4c565b60200260200101516116a9565b80610b9a81611f62565b915050610af5565b50600687604051610bb39190611f89565b9081526040519081900360200190205460ff1615610be65786604051636d7520a160e11b815260040161039a9190611fa5565b6001600160a01b0388166000908152600560205260409020546103e811610c43576001600160a01b03881660008181526005602052604090819020549051639100319b60e01b81526004810192909252602482015260440161039a565b610c51600380546001019055565b6000610c5c60035490565b60008181526004602052604090208181556001810180546001600160a01b0319166001600160a01b038d1617905590915060028101610c9b8a82611e6a565b5060038101610caa8982611e6a565b5060048101610cb98882611e6a565b5060058101610cc88782611e6a565b508451610cde9060068301906020880190611716565b50845160078201805463ffffffff191663ffffffff90921691909117905542600882015560098101805460ff19166001179055600a8101610d1f8582611e6a565b506001600160a01b038a1660009081526005602090815260408083208054600181810183559185529290932090910184905551600690610d60908c90611f89565b908152604051908190036020018120805492151560ff19909316929092179091558290600790610d91908c90611f89565b908152602001604051809103902081905550896001600160a01b0316827f9ec2296ab48fd76b95b4da8004a8333d35da7a513d70399ca7a004387847750e8b8b895142604051610de49493929190611fb8565b60405180910390a3509050610df860018055565b979650505050505050565b6000610e0e60035490565b905090565b6000610e1e82611586565b92915050565b6000600682604051610e369190611f89565b9081526040519081900360200190205460ff16610e69576040516344dcb68560e11b81526000600482015260240161039a565b600782604051610e799190611f89565b9081526020016040518091039020549050919050565b610e97611494565b6001600160a01b038116610efc5760405162461bcd60e51b815260206004820152602660248201527f4f776e61626c653a206e6577206f776e657220697320746865207a65726f206160448201526564647265737360d01b606482015260840161039a565b610f058161159b565b50565b6001600160a01b038116600090815260056020908152604080832080548251818502810185019093528083528493830182828015610f6557602002820191906000526020600020905b815481526020019060010190808311610f51575b5050505050905060005b8151811015610fd45760046000838381518110610f8e57610f8e611f4c565b60209081029190910181015182528101919091526040016000206009015460ff1615610fc25782610fbe81611f62565b9350505b80610fcc81611f62565b915050610f6f565b5050919050565b6110496040518061016001604052806000815260200160006001600160a01b031681526020016060815260200160608152602001606081526020016060815260200160608152602001600063ffffffff16815260200160008152602001600015158152602001606081525090565b61105282611586565b611072576040516344dcb68560e11b81526004810183905260240161039a565b6000828152600460209081526040918290208251610160810184528154815260018201546001600160a01b03169281019290925260028101805492939192918401916110bd90611de1565b80601f01602080910402602001604051908101604052809291908181526020018280546110e990611de1565b80156111365780601f1061110b57610100808354040283529160200191611136565b820191906000526020600020905b81548152906001019060200180831161111957829003601f168201915b5050505050815260200160038201805461114f90611de1565b80601f016020809104026020016040519081016040528092919081815260200182805461117b90611de1565b80156111c85780601f1061119d576101008083540402835291602001916111c8565b820191906000526020600020905b8154815290600101906020018083116111ab57829003601f168201915b505050505081526020016004820180546111e190611de1565b80601f016020809104026020016040519081016040528092919081815260200182805461120d90611de1565b801561125a5780601f1061122f5761010080835404028352916020019161125a565b820191906000526020600020905b81548152906001019060200180831161123d57829003601f168201915b5050505050815260200160058201805461127390611de1565b80601f016020809104026020016040519081016040528092919081815260200182805461129f90611de1565b80156112ec5780601f106112c1576101008083540402835291602001916112ec565b820191906000526020600020905b8154815290600101906020018083116112cf57829003601f168201915b5050505050815260200160068201805480602002602001604051908101604052809291908181526020016000905b828210156113c657838290600052602060002001805461133990611de1565b80601f016020809104026020016040519081016040528092919081815260200182805461136590611de1565b80156113b25780601f10611387576101008083540402835291602001916113b2565b820191906000526020600020905b81548152906001019060200180831161139557829003601f168201915b50505050508152602001906001019061131a565b50505090825250600782015463ffffffff16602082015260088201546040820152600982015460ff1615156060820152600a8201805460809092019161140b90611de1565b80601f016020809104026020016040519081016040528092919081815260200182805461143790611de1565b80156114845780601f1061145957610100808354040283529160200191611484565b820191906000526020600020905b81548152906001019060200180831161146757829003601f168201915b5050505050815250509050919050565b6000546001600160a01b031633146103635760405162461bcd60e51b815260206004820181905260248201527f4f776e61626c653a2063616c6c6572206973206e6f7420746865206f776e6572604482015260640161039a565b6114f66116cd565b6002805460ff191690557f5db9ee0a495bf2e6ff9c91a7834c1ba4fdd244a5e8aa4e537bd38aeae4b073aa335b6040516001600160a01b03909116815260200160405180910390a1565b60025460ff16156103635760405162461bcd60e51b815260206004820152601060248201526f14185d5cd8589b194e881c185d5cd95960821b604482015260640161039a565b60008082118015610e1e575050600354101590565b600080546001600160a01b038381166001600160a01b0319831681178455604051919092169283917f8be0079c531659141344cd1fd0a4f28419497f9722a3daafe3b4186f6b6457e09190a35050565b60026001540361163d5760405162461bcd60e51b815260206004820152601f60248201527f5265656e7472616e637947756172643a207265656e7472616e742063616c6c00604482015260640161039a565b6002600155565b6101f4815111156108e35780516040516356bd99f560e11b815261039a918491600401611f2a565b611674611540565b6002805460ff191660011790557f62e78cea01bee320cd4e420270b5ea74000d11b0c9f74754ebdbfc544b05a2586115233390565b80516000036108e35781604051631101825360e31b815260040161039a9190611fa5565b60025460ff166103635760405162461bcd60e51b815260206004820152601460248201527314185d5cd8589b194e881b9bdd081c185d5cd95960621b604482015260640161039a565b82805482825590600052602060002090810192821561175c579160200282015b8281111561175c578251829061174c9082611e6a565b5091602001919060010190611736565b5061176892915061176c565b5090565b808211156117685760006117808282611789565b5060010161176c565b50805461179590611de1565b6000825580601f106117a5575050565b601f016020900490600052602060002090810190610f0591905b8082111561176857600081556001016117bf565b80356001600160a01b03811681146117ea57600080fd5b919050565b6000806040838503121561180257600080fd5b61180b836117d3565b946020939093013593505050565b634e487b7160e01b600052604160045260246000fd5b604051601f8201601f1916810167ffffffffffffffff8111828210171561185857611858611819565b604052919050565b600082601f83011261187157600080fd5b813567ffffffffffffffff81111561188b5761188b611819565b61189e601f8201601f191660200161182f565b8181528460208386010111156118b357600080fd5b816020850160208301376000918101602001919091529392505050565b6000602082840312156118e257600080fd5b813567ffffffffffffffff8111156118f957600080fd5b61190584828501611860565b949350505050565b60006020828403121561191f57600080fd5b5035919050565b60006020828403121561193857600080fd5b611941826117d3565b9392505050565b6020808252825182820181905260009190848201906040850190845b8181101561198057835183529284019291840191600101611964565b50909695505050505050565b60005b838110156119a757818101518382015260200161198f565b50506000910152565b600081518084526119c881602086016020860161198c565b601f01601f19169290920160200192915050565b8a81526001600160a01b038a16602082015261014060408201819052600090611a078382018c6119b0565b90508281036060840152611a1b818b6119b0565b90508281036080840152611a2f818a6119b0565b905082810360a0840152611a4381896119b0565b905063ffffffff871660c08401528560e0840152841515610100840152828103610120840152611a7381856119b0565b9d9c50505050505050505050505050565b60008060408385031215611a9757600080fd5b82359150602083013567ffffffffffffffff811115611ab557600080fd5b611ac185828601611860565b9150509250929050565b600082601f830112611adc57600080fd5b8135602067ffffffffffffffff80831115611af957611af9611819565b8260051b611b0883820161182f565b9384528581018301938381019088861115611b2257600080fd5b84880192505b85831015611b5e57823584811115611b405760008081fd5b611b4e8a87838c0101611860565b8352509184019190840190611b28565b98975050505050505050565b600080600080600080600060e0888a031215611b8557600080fd5b611b8e886117d3565b9650602088013567ffffffffffffffff80821115611bab57600080fd5b611bb78b838c01611860565b975060408a0135915080821115611bcd57600080fd5b611bd98b838c01611860565b965060608a0135915080821115611bef57600080fd5b611bfb8b838c01611860565b955060808a0135915080821115611c1157600080fd5b611c1d8b838c01611860565b945060a08a0135915080821115611c3357600080fd5b611c3f8b838c01611acb565b935060c08a0135915080821115611c5557600080fd5b50611c628a828b01611860565b91505092959891949750929550565b600081518084526020808501808196508360051b8101915082860160005b85811015611cb9578284038952611ca78483516119b0565b98850198935090840190600101611c8f565b5091979650505050505050565b602081528151602082015260006020830151611ced60408401826001600160a01b03169052565b506040830151610160806060850152611d0a6101808501836119b0565b91506060850151601f1980868503016080870152611d2884836119b0565b935060808701519150808685030160a0870152611d4584836119b0565b935060a08701519150808685030160c0870152611d6284836119b0565b935060c08701519150808685030160e0870152611d7f8483611c71565b935060e08701519150610100611d9c8188018463ffffffff169052565b870151610120878101919091528701519150610140611dbe8188018415159052565b870151868503909101838701529050611dd783826119b0565b9695505050505050565b600181811c90821680611df557607f821691505b602082108103611e1557634e487b7160e01b600052602260045260246000fd5b50919050565b601f821115611e6557600081815260208120601f850160051c81016020861015611e425750805b601f850160051c820191505b81811015611e6157828155600101611e4e565b5050505b505050565b815167ffffffffffffffff811115611e8457611e84611819565b611e9881611e928454611de1565b84611e1b565b602080601f831160018114611ecd5760008415611eb55750858301515b600019600386901b1c1916600185901b178555611e61565b600085815260208120601f198616915b82811015611efc57888601518255948401946001909101908401611edd565b5085821015611f1a5787850151600019600388901b60f8161c191681555b5050505050600190811b01905550565b604081526000611f3d60408301856119b0565b90508260208301529392505050565b634e487b7160e01b600052603260045260246000fd5b600060018201611f8257634e487b7160e01b600052601160045260246000fd5b5060010190565b60008251611f9b81846020870161198c565b9190910192915050565b60208152600061194160208301846119b0565b608081526000611fcb60808301876119b0565b8281036020840152611fdd81876119b0565b63ffffffff9590951660408401525050606001529291505056fea26469706673582212200da643f862bab2fc7a2febf0cf87aa4c077d189dc92874e76fdc86698cc8cc3d64736f6c63430008130033",
  "linkReferences": {},
  "deployedLinkReferences": {}
}